:100000006AC08EC042C38CC08BC0B3C289C0EDC26F
:1000100087C086C085C084C083C082C081C000C242
:10002000010000000F000F000D0000E100000300C0
:10003000230023002100009600000C003800380047
:100040003600127A00002000480048004600807008
:10005000000023004F004F004C00004B0000340014
:10006000760076007400403800004C00A100A1002A
:100070009E00802500007600F100F100EE00C01225
:100080000000F000E701E701E50160090000E6017A
:10009000D003D003CE03B0040000D103A907A90701
:1000A000A40758020000A907530F530F4F0F2C014C
:1000B0000000530FAF1EAF1EAC1E01030000040072
:1000C00000000000380002020202020201020408DD
:1000D00010208A03F40411241FBECFE5D2E0DEBF56
:1000E000CDBF21E0AEE9B0E001C01D92A434B2075B
:1000F000E1F710E0A0E6B0E0E4E8FAE002C0059025
:100100000D92AE39B107D9F710E0CAE6D0E003C0CE
:100110002197FE01A5D4C936D107D1F79AD3A6C439
:100120006FCF08952FB7F894FC01458556853AE0C6
:100130006095089420F478B3752378BB04C078B335
:10014000742B78BB00009BD29AD299D298D2669534
:100150003A9581F72FBF81E090E00895DC011F966A
:10016000ED91FC9120A131A182A193A1281739071B
:1001700079F0A2A1B3A1AE0FBF1F8C9122A133A130
:100180002F5F3F4F2F71332733A322A390E00895B1
:100190008FEF9FEF0895DC011F96ED91FC9120A158
:1001A00031A182A193A12817390739F082A193A127
:1001B000E80FF91F808190E008958FEF9FEF089579
:1001C000DC011F96ED91FC9180A191A122A133A1A8
:1001D000821B930B8F7199270895CF92DF92EF9234
:1001E000FF920F931F93CF93DF936C01EB017B0181
:1001F000E40EF51E10E000E0CE15DF0561F0699118
:10020000D601ED91FC910190F081E02DC601099598
:10021000080F191FF1CFC801DF91CF911F910F91E6
:10022000FF90EF90DF90CF900895DC015196ED9113
:10023000FC915297908150968C9180958923808370
:1002400008952091E0003091E1002817390781F4EA
:100250009091DE008091DF00981751F0E091DE0070
:10026000F0E0E256FF4F8081082E000C990B0895B4
:100270008FEF9FEF08952091E0003091E100281763
:10028000390739F48FB7F8941092DF001092DE002E
:100290008FBF08952091E0003091E10028173907C1
:1002A00069F48091DF002091DE0090E0805C9F4F38
:1002B000821B910960E470E0ACD3089590E080E087
:1002C00008952091E0003091E10028173907B9F432
:1002D0009091DE008091DF00981789F0E091DE00B8
:1002E000F0E0E256FF4F80812091DE0030E02F5F8A
:1002F0003F4F2F7333272093DE0090E008958FEF58
:100300009FEF089520E001972FEF8F3F9207D9F7D5
:100310000895EF92FF920F931F93CF93DF93C091B5
:10032000E000D091E100209749F0EE85FF859D85A2
:100330008B8D81FF0AC08081892351F4DF91CF9199
:100340001F910F91FF90EF90089580818923B1F75D
:100350008B899C89D7DF88E0E82EF12C10E001E042
:100360008D899E89CFDFEE85FF8580819D858923DC
:1003700031F1102B000F81E0E81AF10889F78F891D
:10038000988DC0DF8B8D81FD10958091DF002091CD
:10039000DE0090E001968F7399272817190699F0CF
:1003A000E091DF00F0E0E256FF4F10838091DF0024
:1003B00090E001968F7399278093DF00BFCF802F45
:1003C00080951823D7CF8B8D81608B8FB7CFDF922D
:1003D000EF92FF920F931F93CF93DF93EC01898DE0
:1003E0009A8D892B71F481E090E09B838A8390E061
:1003F00080E0DF91CF911F910F91FF90EF90DF9000
:100400000895162FDFB6F8948B8D81FD22C0CE01A2
:100410000CDF898D9A8D76DF8B8D98E0E92EF12C9B
:1004200001E081FF24C0812F8023D1F0CE01FDDEC9
:10043000898D9A8D67DF000F81E0E81AF10899F73E
:10044000CE01F3DEDFBE898D9A8D5CDF81E090E026
:10045000D0CFE989FA8980819889892B8083D9CF87
:10046000E989FA8980819889892B8083E1CF812F5E
:100470008023A9F0E989FA8980819889892B808372
:10048000898D9A8D3FDF000F81E0E81AF10879F736
:10049000E989FA8980819889892B8083D3CFCE011D
:1004A000C4DEEECF90E0FC01E654FF4F2491FC0146
:1004B000E453FF4F3491FC01EA53FF4FE491EE23E4
:1004C000A1F0222329F0213089F48AB58F778ABDE3
:1004D000F0E0EE0FFF1FE054FF4FA591B4918FB7EE
:1004E000F894EC91E32BEC938FBF0895223019F42C
:1004F0008AB58F7DECCF233021F480B78F7D80BF0C
:10050000E7CF243029F78CB58F7D8CBDE1CFEF92FA
:10051000FF920F931F93CF93DF93EC01FB010190A8
:100520000020E9F73197AF01461B570BE881F981AD
:100530000280F381E02D09958C01E881F981019019
:10054000F081E02D6DE0CE0109957C01E881F98113
:100550000190F081E02D6AE0CE0109950E0D1F1D7E
:10056000800F911FDF91CF911F910F91FF90EF901E
:1005700008951F920F920FB60F9211244F935F931D
:100580006F937F938F939F934091E4005091E50088
:100590006091E6007091E7008091E3009091E200A5
:1005A0009F5F9093E2009F3108F48F5F9CE7980F64
:1005B0009D3730F09FEF980F4F5F5F4F6F4F7F4F2A
:1005C0009093E3004093E4005093E5006093E600CD
:1005D0007093E7009F918F917F916F915F914F9101
:1005E0000F900FBE0F901F9018951F920F920FB68D
:1005F0000F9211242F933F934F935F937F938F9389
:100600009F93AF93BF93EF93FF934091180120E026
:1006100038E035D034D033D032D031D0889476B36E
:10062000742309F0089427953A9509F0F3CF27D061
:1006300026D0E0911B01F0911C0180A191A10196AF
:100640008F71992742A153A18417950739F0A0A172
:10065000B1A1AE0FBF1F2C9391A380A3449AFF9129
:10066000EF91BF91AF919F918F917F915F914F914A
:100670003F912F910F900FBE0F901F901895809172
:100680001D01982F9A95F1F708951F920F920FB6BA
:100690000F9211242F933F934F935F936F937F9308
:1006A0008F939F93AF93BF93CF93EF93FF9386B3B3
:1006B00095B389238093270180912601909127018A
:1006C0008927809325018091270180932601C0E02E
:1006D00080912401C81760F4EC2FF0E0EE0FFF1FAB
:1006E000E25EFE4F0190F081E02D0995CF5FF0CFE3
:1006F000FF91EF91CF91BF91AF919F918F917F919A
:100700006F915F914F913F912F910F900FBE0F907E
:100710001F90189510920F0110920E0188EE93E031
:10072000A0E0B0E08093100190931101A09312011A
:10073000B093130124E630E030930D0120930C01B7
:1007400028EE30E030931C0120931B0122E020931F
:10075000180121E0209319012EEF20931A01109225
:100760001D0110922B0110922A0180932C0190936D
:100770002D01A0932E01B0932F0184E790E0909378
:1007800029018093280110923C0110923B011092A4
:100790003E0110923D011092400110923F011092D3
:1007A000420110924101809143018E7F8D7F8093A1
:1007B00043018FB7F894BB98C3988FBF80914301D2
:1007C00081FD02C083E06EDE83E08093340188E027
:1007D0008093350186E390E0909337018093360152
:1007E00080E1809338018FB7F894BC9A8FBF84E082
:1007F00059DE88E390E090933A018093390180912B
:100800001E0190911F018958914011F180912001A2
:100810009091210189589140D9F0809122019091C5
:10082000230189589140A1F080912401833080F404
:10083000E0912401F0E0EE0FFF1FE25EFE4F89E839
:1008400091E091838083809124018F5F80932401C4
:10085000089583E08ABD83BF789489B7826089BF99
:1008600080E48CBD8FEF8DBD87EC80BF87E886B9B3
:1008700084E180931D014398469A4798419A409A93
:1008800087B320911801922F9095982397BB88B336
:10089000822B88BB97B320911901922B97BB88B309
:1008A000822B88BB449A439A60E870E08CE091E028
:1008B0002EDE1092420110924101109240011092DE
:1008C0003F0110923E0110923D0190E080E0FC015A
:1008D000E25EFF4F4591559165917491403C5241C4
:1008E0006105710509F076C0FC01EE5DFF4F2591B1
:1008F000349130933C0120933B01FC01EC5DFF4FB0
:100900002591349130933E0120933D01FC01EA5D35
:10091000FF4F259134913093400120933F01FC011A
:10092000E85DFF4F8591949190934201809341013E
:1009300080913F0190914001892BA9F09091340161
:10094000963060F48BB780628BBF85B321E030E0D6
:1009500001C0220F9A95EAF7822B85BB8091410155
:1009600090914201CFDC8091E0009091E1008852AB
:10097000914091F0809143018E7F809343018FB726
:10098000F8941092DF001092DE0028E231E03093FC
:10099000E1002093E0008FBF60E970E088E291E021
:1009A000B6DD88E291E076DC892B39F088E291E0CF
:1009B00088DC682F8CE091E0B5DB8CE091E000DC16
:1009C000892B79F38CE091E0C9DB682F88E291E014
:1009D000FEDCE7CF0C968C39910509F078CF1092A8
:1009E0003C0110923B01A4CF84E790E09093290151
:1009F0008093280120913401263050F435B381E0F2
:100A000090E001C0880F2A95EAF78095832385BB83
:100A1000089597FB072E16F4009406D077FD08D0B2
:100A20000BD007FC05D03EF4909581959F4F08951B
:100A3000709561957F4F0895AA1BBB1B51E107C0BC
:100A4000AA1FBB1FA617B70710F0A61BB70B881F5E
:100A5000991F5A95A9F780959095BC01CD010895ED
:100A6000EE0FFF1F0590F491E02D099410E0CAE607
:100A7000D0E003C0FE01F4DF2196CB36D107D1F7D9
:040A8000F894FFCF18
:100A8400000000009200ED00E000AE00CB009100F9
:100A940000000000E701ED004A01610121013B0172
:100AA400476F6F646E69676874206D6F6F6E2100A5
:0E0AB40048656C6C6F2C20776F726C643F008D
:00000001FF
