:1000000020C02DC02CC02BC02AC060C028C027C073
:1000100026C025C024C023C022C021C020C00000AB
:100020000000380002020202020202020202010281
:100030000408102020041008010200000400000041
:10004000000011241FBECFEDCDBF20E0A0E6B0E040
:1000500001C01D92AF36B207E1F782D028C1D0CFE0
:10006000EAE3F0E02491E0E3F0E09491E6E2F0E0EE
:10007000E491EE23C1F0222329F0223009F1A0F40B
:100080002130D1F0F0E0EE0FFF1FE25EFF4FA591AF
:10009000B4912FB7F894811116C08C91E92FE09597
:1000A000E823EC932FBF0895233011F0243051F74B
:1000B0002CB52F7D2CBDE6CF2AB52F772ABDE2CFF8
:1000C0002AB52F7DFBCFEC91E92BEBCF1F920F923E
:1000D0000FB60F9211242F933F938F939F93AF935B
:1000E000BF9380916B0090916C00A0916D00B091D6
:1000F0006E0030916A0020E3230F2D3758F54096AB
:10010000A11DB11D20936A0080936B0090936C0039
:10011000A0936D00B0936E0080916600909167008F
:10012000A0916800B09169000196A11DB11D809356
:10013000660090936700A0936800B0936900BF9138
:10014000AF919F918F913F912F910F900FBE0F9084
:100150001F90189523EB230F4196A11DB11DD2CFFF
:1001600078948AB582608ABD8AB581608ABD83B77A
:10017000826083BF83B7816083BF89B7826089BF94
:1001800080B7826080BF3298319A309A379A8CB5A6
:1001900080648CBD04E610E0C0E0D0E02FB7F89496
:1001A00080916B0090916C00A0916D00B0916E00F9
:1001B0002FBF409162005091630060916400709184
:1001C0006500841B950BA60BB70B80319742A105E8
:1001D000B10588F12FB7F89480916B0090916C0075
:1001E000A0916D00B0916E002FBF8093620090933C
:1001F0006300A0936400B093650017B8369A3699EF
:10020000FECFE4B0F5B06E2D80916000909161005A
:1002100019D080916000909161000196B80120D0C2
:10022000909361008093600081E0E81682E0F80618
:100230003CF081E015DF209709F4B0CFE1DEAECFCE
:1002400080E0F8CF262FE199FECF1CBA1FBA8EBBF3
:100250002DBB0FB6F894E29AE19A0FBE019608956D
:1002600097FB072E16F4009406D077FD08D00BD02C
:1002700007FC05D03EF4909581959F4F08957095A9
:1002800061957F4F0895AA1BBB1B51E107C0AA1FB0
:10029000BB1FA617B70710F0A61BB70B881F991F27
:1002A0005A95A9F780959095BC01CD010895F894D1
:0202B000FFCF7E
:00000001FF
