:100000001FC043C04AC241C040C00BC23EC03DC039
:100010003CC03BC03AC039C038C037C036C0000011
:100020000000370000000000380002020202020255
:10003000010204081020010300000400D403290475
:1000400011241FBECFE5D2E0DEBFCDBF20E0AEE77A
:10005000B0E001C01D92AE3EB207E1F710E0A0E6AD
:10006000B0E0EEE7F9E002C005900D92AE37B107BF
:10007000D9F710E0CFE1D0E003C02197FE016DD4A5
:10008000CE31D107D1F781D26EC4BACFCF92DF92F1
:10009000EF92FF920F931F93CF93DF936C01EB01CD
:1000A0007B01E40EF51E10E000E0CE15DF0561F0E7
:1000B0006991D601ED91FC910190F081E02DC6018E
:1000C0000995080F191FF1CFC801DF91CF911F913A
:1000D0000F91FF90EF90DF90CF9008952091C00096
:1000E0003091C1002817390781F49091BE008091AA
:1000F000BF00981751F0E091BE00F0E0E258FF4FCA
:100100008081082E000C990B08958FEF9FEF0895C2
:100110002091C0003091C1002817390739F48FB7FA
:10012000F8941092BF001092BE008FBF0895EF9216
:10013000FF920F931F93CF93DF93DC015C96ED90BA
:10014000FC905D97E114F10479F481E090E013965E
:100150009C938E93129790E080E0DF91CF911F9156
:100160000F91FF90EF9008955196ED91FC91529769
:1001700050968C915097982F90950FB75E962C9132
:100180005E97122F127021FD6095F8942081112343
:1001900019F1282B2083E7012197F1F728E0462F5A
:1001A00050E0308160FF1AC0382B3083E70121977F
:1001B000F1F7BA0175956795215089F7112381F000
:1001C0008081892380830FBF5C968D919C910197DC
:1001D000F1F781E090E0C1CF2923DCCF3923E5CFCF
:1001E0009081892BEFCF682F8FEC90E0A0CF2091EA
:1001F000C0003091C1002817390769F48091BF0011
:100200002091BE0090E0805C9F4F821B910960E4CA
:1002100070E05AD3089590E080E008952091C000E6
:100220003091C10028173907B9F49091BE00809130
:10023000BF00981789F0E091BE00F0E0E258FF4F50
:1002400080812091BE0030E02F5F3F4F2F73332716
:100250002093BE0090E008958FEF9FEF0895FC017A
:1002600001900020E9F73197AF01481B590BBC0101
:100270008FEC90E00BCF4F925F926F927F92AF9294
:10028000BF92CF92DF92EF92FF921F93CF93DF93B3
:10029000CDB7DEB7A1970FB6F894DEBF0FBECDBFC6
:1002A0006B017C01B12CA12CF7FE0BC08DE29BDF12
:1002B0005C01F094E094D094C094C11CD11CE11C6A
:1002C000F11C1C2D7D2DC70119A27E0121E2E20E39
:1002D000F11C2AE0422E512C612C712C612FA301BC
:1002E000920105D3822F6AE0E6D2181B1A301CF562
:1002F000105DF70112937F01122F732FCA01232B78
:10030000242B252B59F7CF01AADF8A0D9B1DA1961F
:100310000FB6F894DEBF0FBECDBFDF91CF911F9116
:10032000FF90EF90DF90CF90BF90AF907F906F9055
:100330005F904F900895195CDCCF90E0FC01EA5C7F
:10034000FF4F3491FC01E05DFF4F2491FC01E65D1D
:10035000FF4FE491EE23B9F0332329F03130A1F4BB
:100360008AB58F778ABDF0E0EE0FFF1FEC5DFF4F7F
:10037000A591B4918FB7611118C0F894EC912095B4
:100380002E232C938FBF0895323019F48AB58F7DB8
:10039000E9CF333021F480B78F7D80BFE4CF343094
:1003A00011F78CB58F7D8CBDDECFF894EC912E2BA0
:1003B000E8CFCF93DF9387FF03C0803849F182E015
:1003C00090E0FC01E05DFF4F2491865D9F4FFC01B2
:1003D00084918823D1F090E0880F991FFC01E25EA0
:1003E000FF4FA591B491FC01EC5DFF4FC591D491F5
:1003F000611110C09FB7F8948C91E22FE0958E2385
:100400008C932881E223E8839FBFDF91CF910895E9
:1004100085E0D6CF8FB7F894EC91E22BEC938FBFA9
:10042000F4CF1F920F920FB60F9211244F935F9348
:100430006F937F938F939F934091CB005091CC000B
:100440006091CD007091CE008091CA009091C9005A
:100450009F5F9093C9009F3108F48F5F9CE7980FCE
:100460009D3730F09FEF980F4F5F5F4F6F4F7F4F7B
:100470009093CA004093CB005093CC006093CD0082
:100480007093CE009F918F917F916F915F914F916B
:100490000F900FBE0F901F9018951F920F920FB6DE
:1004A0000F9211242F933F934F935F936F937F93FA
:1004B0008F939F93AF93BF93EF93FF93E091C0000F
:1004C000F091C100309749F0A685B7858585968D56
:1004D00091FF14C09C918923A1F4FF91EF91BF91EA
:1004E000AF919F918F917F916F915F914F913F91CC
:1004F0002F910F900FBE0F901F9018959C918923FC
:1005000061F7A389B4899C918589809589238C930F
:10051000868997890197F1F7608D718DA685B785DA
:10052000558538E020E0CB010197F1F7822F90E06C
:1005300095958795282F4C91452309F020683150D7
:1005400091F7868D81FD20958091BF0090E0019606
:100550008F7399273091BE00381799F0A091BF0092
:10056000B0E0A258BF4F2C938093BF00828D938D33
:100570000197F1F7A389B4898C919589892B8C9384
:10058000ACCF868D8160868FF1CF83E08ABD83BF3B
:10059000789489B7826089BF80E48CBD8FEF8DBD70
:1005A00087EC80BF87E886B961E081E002DF60E028
:1005B00081E8FFDE86E08093C2001092EA0010928C
:1005C000E9001092E8001092E7001092E600109205
:1005D000E5008AEA91E09093EC008093EB00309183
:1005E000DB00363020F543EC50E05093E6004093BA
:1005F000E50048EA51E05093E8004093E70045E306
:1006000051E05093EA004093E9002BB720622BBFE2
:1006100045E350E05093E3004093E20021E001C045
:10062000220F3A95EAF72093E4000197F1F78091C1
:10063000E9009091EA00892B49F1E091C000F09126
:10064000C10020E0EF3CF20709F1309739F0A389AF
:10065000B4899C918589809589238C938091ED0044
:100660008E7F8093ED001092BF001092BE008FEC41
:1006700090E09093C1008093C000E091E200F0917F
:10068000E30080819091E400892B8083C12CD12CE0
:100690007601C601FAD0C82F80E790E0E0DDC701FF
:1006A000B601E9DD88E790E0DADD6C2F70E090E0DC
:1006B00080E0E1DD8DE097DD8AE095DD8FEFC81AFF
:1006C000D80AE80AF80A24E6C216D104E104F104C3
:1006D00001F704E610E02FB7F8948091CB009091D9
:1006E000CC00A091CD00B091CE002FBF4091C500AD
:1006F0005091C6006091C7007091C800841B950B93
:10070000A60BB70B883E9340A105B10520F32FB788
:10071000F8948091CB009091CC00A091CD00B09145
:10072000CE002FBF8093C5009093C600A093C70052
:10073000B093C8008091C2008295880F880F807C9A
:10074000816087B997B18091C200880F880F80714E
:10075000892B87B9369A3699FECF84B1C5B1DC2F83
:10076000C82FBE010D2E000C880B990B84DD8DE087
:100770003ADD8AE038DD6C2F8091C3009091C4008F
:100780008CD08091C3009091C4000196B8019CD098
:100790009093C4008093C30061E0C130D2400CF458
:1007A00060E081E0CADD97CF1092D2001092D100B4
:1007B00088EE93E0A0E0B0E08093D3009093D40063
:1007C000A093D500B093D60084E690E09093D0003B
:1007D0008093CF001092E6001092E5001092E8009E
:1007E0001092E7001092EA001092E9001092EC00DB
:1007F0001092EB006091ED006E7F6D7F6093ED00D5
:100800006695617081E0682784E097DD61E084E0AF
:10081000D0DD80E18093DF0088E390E09093E100F9
:100820008093E00060E083E0C4DD8091ED0081FD15
:1008300003C061E083E081DD83E08093DB0088E03A
:100840008093DC0086E390E09093DE008093DD00EF
:10085000089584E690E09093D0008093CF0080913B
:10086000C0009091C1008F5C904071F4E091E20073
:10087000F091E30090818091E4008095892380834A
:100880001092C1001092C0000895E199FECF9FBB65
:100890008EBBE09A99278DB30895262FE199FECF5C
:1008A0001CBA9FBB8EBB2DBB0FB6F894E29AE19A9F
:1008B0000FBE01960895002480FD060E660F11F00C
:1008C0008695D1F7802D089597FB072E16F4009496
:1008D00006D077FD08D02DD007FC05D03EF49095CA
:1008E00081959F4F0895709561957F4F0895A1E27E
:1008F0001A2EAA1BBB1BFD010DC0AA1FBB1FEE1F9A
:10090000FF1FA217B307E407F50720F0A21BB30BE4
:10091000E40BF50B661F771F881F991F1A9469F760
:1009200060957095809590959B01AC01BD01CF01BC
:100930000895AA1BBB1B51E107C0AA1FBB1FA61726
:10094000B70710F0A61BB70B881F991F5A95A9F778
:1009500080959095BC01CD010895EE0FFF1F059085
:10096000F491E02D099410E0CFE1D0E003C0FE0146
:0E097000F4DF2196C032D107D1F7F894FFCF03
:10097E000000000097004600F7000E016E00880090
:0E098E00454550524F4D5B005D203D2000005E
:00000001FF
