:100000001FC043C047C341C040C008C33EC03DC03D
:100010003CC03BC03AC039C038C037C036C0000011
:100020000000370000000000380002020202020255
:100030000102040810200103000004006F08C50835
:1000400011241FBECFE5D2E0DEBFCDBF21E0A2EF7D
:10005000B0E001C01D92AD37B207E1F710E0A0E6B5
:10006000B0E0EEE2F7E102C005900D92A23FB107C9
:10007000D9F710E0CFE1D0E003C02197FE0145DBC6
:10008000CE31D107D1F77ED346CBBACFCF92DF9214
:10009000EF92FF929FB7F894C0905A01D0905B0105
:1000A000E0905C01F0905D013091590122B788B772
:1000B000482F427081FF04C041E02F3F09F440E027
:1000C0009FBFC701B60157E0660F771F881F991FB2
:1000D0005A95D1F7630F711D811D911D6C197D0912
:1000E0008E099F09CC0CDD1CEE1CFF1C6C197D09D0
:1000F0008E099F09F3E0660F771F881F991FFA95F5
:10010000D1F730E0F22FEE27B3E0220F331FBA957C
:10011000E1F7DF01A21BB30B9D0156E03695279551
:100120005A95E1F7620F731F811D911D442321F041
:1001300060527C4F8F4F9F4FFF90EF90DF90CF909A
:100140000895CF92DF92EF92FF920F931F93CF9378
:10015000DF936C01EB017B01E40EF51E10E000E083
:10016000CE15DF0561F06991D601ED91FC9101900A
:10017000F081E02DC6010995080F191FF1CFC801C4
:10018000DF91CF911F910F91FF90EF90DF90CF9073
:10019000089520913401309135012817390781F4F1
:1001A0009091320180913301981751F0E091320122
:1001B000F0E0EE50FF4F8081082E000C990B08955F
:1001C0008FEF9FEF0895209134013091350128176A
:1001D000390739F48FB7F894109233011092320135
:1001E0008FBF0895EF92FF920F931F93CF93DF93EA
:1001F000DC015C96ED90FC905D97E114F10479F4DC
:1002000081E090E013969C938E93129790E080E0AB
:10021000DF91CF911F910F91FF90EF90089551962C
:10022000ED91FC91529750968C915097982F909504
:100230000FB75E962C915E97122F127021FD60957C
:10024000F8942081112319F1282B2083E7012197AD
:10025000F1F728E0462F50E0308160FF1AC0382BBC
:100260003083E7012197F1F7BA0175956795215021
:1002700089F7112381F08081892380830FBF5C96E9
:100280008D919C910197F1F781E090E0C1CF2923F6
:10029000DCCF3923E5CF9081892BEFCFCF93DF934C
:1002A0006DE08EE591E09EDFEC016AE08EE591E085
:1002B00099DF8C0F9D1FDF91CF910895209134011C
:1002C000309135012817390769F480913301209165
:1002D000320190E0805C9F4F821B910960E470E0E6
:1002E000CBD9089590E080E00895209134013091B9
:1002F000350128173907B9F4909132018091330103
:10030000981789F0E0913201F0E0EE50FF4F8081C4
:100310002091320130E02F5F3F4F2F73332720931E
:10032000320190E008958FEF9FEF0895FC01019056
:100330000020E9F73197AF01481B590BBC018EE54E
:1003400091E0FFCE8F929F92AF92BF92EF92FF9279
:100350000F931F93CF93DF93CDB7DEB7A1970FB65F
:10036000F894DEBF0FBECDBF162F042F19A2423066
:1003700008F40AE07E0121E2E20EF11C802E912CAD
:10038000B12CA12C612FA501940189D9802F622F56
:100390004FD8181B1A30F4F4105DF70112937F0147
:1003A000122F732FCA01232B242B252B59F7CF0192
:1003B000BDDFA1960FB6F894DEBF0FBECDBFDF91B3
:1003C000CF911F910F91FF90EF90BF90AF909F90B2
:1003D0008F900895195CE1CFCF92DF92EF92FF9258
:1003E000CF93DF936B017C01D0E0C0E0F7FE0DC03E
:1003F0006DE28EE591E0F6DEEC01F094E094D094AD
:10040000C094C11CD11CE11CF11C4AE0C701B6011B
:1004100099DF8C0F9D1FDF91CF91FF90EF90DF90C0
:10042000CF90089583CF8F929F92AF92BF92CF9239
:10043000DF92EF92FF921F93CF93DF936B017C01CA
:10044000B42E20E030E0A901BCD6D0E0C0E087FFA8
:1004500009C06DE28EE591E0C5DEEC01F7FAF0949B
:10046000F7F8F09410E060E070E080E09FE31B1587
:1004700039F020E030E040E251E448D81F5FF7CF88
:10048000A7019601DFD76B017C01ADD84B015C0160
:100490004AE058DFC80FD91F112379F1C501B40113
:1004A00094D69B01AC01C701B601CBD76B017C018F
:1004B00080E790E03BDFC80FD91F1150F0F020E03B
:1004C00030E040E251E4C701B601E0D64B015C01E7
:1004D00085D86B01770FEE08FF08C701B6017CDFF6
:1004E000C80FD91FC701B60172D69B01AC01C50167
:1004F000B401A7D76B017C01E0CFCE01DF91CF9192
:100500001F91FF90EF90DF90CF90BF90AF909F90A2
:100510008F900895CF93DF93BC01990F880B990BAF
:100520005BDFEC01BBDE8C0F9D1FDF91CF91089547
:1005300090E0FC01EA5CFF4F3491FC01E05DFF4F6D
:100540002491FC01E65DFF4FE491EE23B9F03323E3
:1005500029F03130A1F48AB58F778ABDF0E0EE0F33
:10056000FF1FEC5DFF4FA591B4918FB7611118C0CB
:10057000F894EC9120952E232C938FBF0895323060
:1005800019F48AB58F7DE9CF333021F480B78F7DA0
:1005900080BFE4CF343011F78CB58F7D8CBDDECFBA
:1005A000F894EC912E2BE8CFCF93DF9387FF03C015
:1005B000803849F182E090E0FC01E05DFF4F24913A
:1005C000865D9F4FFC0184918823D1F090E0880FD5
:1005D000991FFC01E25EFF4FA591B491FC01EC5D17
:1005E000FF4FC591D491611110C09FB7F8948C91C1
:1005F000E22FE0958E238C932881E223E8839FBF2E
:10060000DF91CF91089585E0D6CF8FB7F894EC9124
:10061000E22BEC938FBFF4CFFDC6F4C61F920F926E
:100620000FB60F9211244F935F936F937F938F9325
:100630009F9340915A0150915B0160915C017091D0
:100640005D0180915901909158019F5F90935801ED
:100650009F3108F48F5F9CE7980F9D3730F09FEF34
:10066000980F4F5F5F4F6F4F7F4F909359014093AB
:100670005A0150935B0160935C0170935D019F91FF
:100680008F917F916F915F914F910F900FBE0F905F
:100690001F9018951F920F920FB60F9211242F934F
:1006A0003F934F935F936F937F938F939F93AF93FA
:1006B000BF93EF93FF93E0913401F09135013097B0
:1006C00049F0A685B7858585968D91FF14C09C91CC
:1006D0008923A1F4FF91EF91BF91AF919F918F91E9
:1006E0007F916F915F914F913F912F910F900FBE2E
:1006F0000F901F9018959C91892361F7A389B48965
:100700009C918589809589238C9386899789019707
:10071000F1F7608D718DA685B785558538E020E0AD
:10072000CB010197F1F7822F90E095958795282FBF
:100730004C91452309F02068315091F7868D81FD59
:1007400020958091330190E001968F739927309125
:100750003201381799F0A0913301B0E0AE50BF4F8D
:100760002C9380933301828D938D0197F1F7A389A8
:10077000B4898C919589892B8C93ACCF868D8160BF
:10078000868FF1CF83E08ABD83BF789489B782607A
:1007900089BF80E48CBD8FEF8DBD87EC80BF87E87B
:1007A00086B960E081E800DF61E084E0FDDE109260
:1007B00079011092780110927701109276011092CF
:1007C0007501109274018AEA91E090937B01809305
:1007D0007A0130916A01363020F543EC50E05093B5
:1007E00075014093740148EA51E0509377014093BA
:1007F000760145E351E050937901409378012BB79E
:1008000020622BBF45E350E0509372014093710189
:1008100021E001C0220F3A95EAF720937301019776
:10082000F1F78091780190917901892B49F1E0915C
:100830003401F091350121E0EE35F20709F13097EE
:1008400039F0A389B4899C918589809589238C93FB
:1008500080917C018E7F80937C01109233011092F5
:1008600032018EE591E09093350180933401E0915F
:100870007101F0917201808190917301892B8083C5
:10088000C12CD12C76018EE5C81681E0D8060CF07B
:1008900088C282E790E0C6DDC701B6019DDD8AE728
:1008A00090E0C0DDC601B9DE90E0B0E0A0E08F3F8F
:1008B0009105A105B10509F03CC24AE060E070E095
:1008C000CB0140DDEBDC60E0C601A6DE2FEFC21AF3
:1008D000D20AE20AF20A86E6C81681E0D806E104E6
:1008E000F10489F661E081E023DE11E0CAE0D0E0A6
:1008F0002FB7F89480915A0190915B01A0915C010F
:10090000B0915D012FBF409154015091550160910C
:10091000560170915701841B950BA60BB70B883EAF
:100920009340A105B10520F32FB7F89480915A01A7
:1009300090915B01A0915C01B0915D012FBF80930C
:10094000540190935501A0935601B0935701A8E02C
:10095000AA2EB12CC12CD12C760117B987B187B939
:10096000369A3699FECF94B185B189279827892781
:10097000092E000CAA0BBB0BC80ED91EEA1EFB1ECB
:1009800085DB4B01FAE04F2E512C612C712C7EDB64
:1009900068197909683E734008F4F6C2411451049D
:1009A0006104710409F0E6C221E0A21AB108A9F6B7
:1009B0004601570153E0B694A794979487945A95AB
:1009C000D1F724EE3CE040E050E0C501B4013BD655
:1009D000EAE09695879577956795EA95D1F77093B4
:1009E000530160935201072E000C880B990BEFD333
:1009F00020E030E04AEF53E424D520E030E040E24C
:100A000051E484D560934E0170934F01809350015F
:100A10009093510120E030E040EF51E410D61816D9
:100A200094F410934D0160E084E082DD60914B010D
:100A300070914C016F5F7F4F70934C0160934B013D
:100A400083E691E0E9DD40904E0150904F016090C7
:100A500050017090510180914D01882371F020E088
:100A600030E040EA51E4C301B201ABD387FF05C0D7
:100A700010924D0161E084E05BDD6091490170916D
:100A80004A01072E000C880B990BA1D3A3019201F8
:100A900098D387FF0AC0C301B201A0D56093490172
:100AA00070934A018FE591E0B7DD40904E01509080
:100AB0004F01609050017090510160914701709119
:100AC0004801072E000C880B990B81D3A3019201DA
:100AD000B6D5181654F4C301B20180D5609347010E
:100AE0007093480180E691E097DD809145019091F7
:100AF000460101969093460180934501BE01BCD505
:100B0000892BB1F560914E0170914F018091500198
:100B10009091510160934101709342018093430190
:100B2000909344019B01AC018CD42B013C0120E04B
:100B300030E0A90184D51816DCF420E030E040EA6A
:100B400050E4C301B2017BD5181694F41093400110
:100B500060913E0170913F016F5F7F4F70933F0145
:100B600060933E0184E691E057DD60E084E0E0DCE4
:100B7000809140018823E9F02091410130914201A8
:100B8000409143015091440160914E0170914F0199
:100B9000809150019091510154D420E030E040E028
:100BA00050E40FD387FF05C01092400161E084E05C
:100BB000BFDC8091450190914601CC970CF476C042
:100BC000109246011092450180913C0190913D01A7
:100BD000019690933D0180933C01BE014DD5892B38
:100BE00009F04DC080913A0190913B019C012F5F2B
:100BF0003F4F30933B0120933A01C701B60145E0D6
:100C000096958795779567954A95D1F7C90104DD43
:100C1000C0904E01D0904F01E0905001F0905101F2
:100C200020E030E040EA51E4C701B60108D587FD75
:100C3000B2C120E030E048EC51E4C701B601C1D2B6
:100C400087FFA9C186E691E0E8DC61E0680F86E6EF
:100C500091E0E2DC80913A0190913B018E35914028
:100C600024F010923B0110923A0160913A018EE516
:100C700091E0D2DC60913C0182E691E0CDDC809194
:100C80003C0190913D01CC978CF0609138017091BE
:100C9000390110923D0110923C016F5F7F4F7093BC
:100CA00039016093380181E691E0B6DC609138014A
:100CB00070913901072E000C880B990B8DDB88EEA3
:100CC00090E0B0DB60913C0170913D01072E000C7B
:100CD000880B990B81DB88EE90E0A4DB60914501E5
:100CE00070914601072E000C880B990B75DB8CEE7A
:100CF00090E098DB4AE0C501B40124DB8FE790E087
:100D000091DB6091520170915301072E000C880B0A
:100D1000990B62DB8FE790E085DB60914E0170916B
:100D20004F01809150019091510142E07CDBB6DA95
:100D3000DFCD4C015D01B2E0880C991CAA1CBB1CE4
:100D4000BA95D1F74AE0C501B401FCDA8FE790E02B
:100D500069DB24EE3CE040E050E0C501B40173D40F
:100D60004B015C01CAE0B694A79497948794CA9506
:100D7000D1F74AE0C501B401E5DA8FE790E052DB34
:100D8000C501B40122D220E030E04AEF53E459D348
:100D900020E030E040E251E4B9D342E044DB7EDAC7
:100DA00095CDF601EF55F140E730F10550F4E652EC
:100DB000F94F099422C03CC056C0C1C06FC089C061
:100DC000A3C08EE591E029DC90E090933B018093F5
:100DD0003A018F3F910541F410923B0110923A0184
:100DE00060E08EE591E018DC83E890E01BDB809109
:100DF0003A0190913B018EDB69CD8FE591E00DDCEE
:100E000090E090934A01809349018F3F910541F40E
:100E100010924A011092490160E08FE591E0FCDBFD
:100E20008CE890E0FFDA8091490190914A01E3CF8C
:100E300080E691E0F2DB90E09093480180934701D7
:100E40008F3F910541F4109248011092470160E0F4
:100E500080E691E0E1DB87E990E0E4DA8091470108
:100E600090914801C8CF81E691E0D7DB90E0909364
:100E70003901809338018F3F910541F41092390177
:100E80001092380160E081E691E0C6DB82EA90E0F2
:100E9000C9DA8091380190913901ADCF83E691E0B4
:100EA000BCDB90E090934C0180934B018F3F910508
:100EB00041F410924C0110924B0160E083E691E006
:100EC000ABDB8BEA90E0AEDA80914B0190914C0164
:100ED00092CF84E691E0A1DB90E090933F01809374
:100EE0003E018F3F910541F410923F0110923E0167
:100EF00060E084E691E090DB8BEB90E093DA809108
:100F00003E0190913F0177CF85E691E086DB90E04E
:100F100090933701809336018F3F910541F41092F1
:100F200037011092360160E085E691E075DB8DECCB
:100F300090E078DA80913601909137015CCF82E6BB
:100F400091E06BDB90E090933D0180933C018F3FFB
:100F5000910541F410923D0110923C0160E082E65F
:100F600091E05ADB8DED90E05DDA80913C0190914B
:100F70003D0141CF81E0481A51086108710828E11C
:100F8000821A2CEF920A03CD4114510461047104BA
:100F900009F0FDCC09CD20E030E048EC51E4C70178
:100FA000B6014DD387FD11C020E030E040EF51E4A1
:100FB000C701B60106D187FF08C087E691E02DDBA7
:100FC00061E0680F87E691E044CE20E030E040EF3A
:100FD00051E4C701B60133D387FD11C020E030E0F2
:100FE0004CE052E4C701B601ECD087FF08C088E6A8
:100FF00091E013DB61E0680F88E691E02ACE20E003
:1010000030E04CE052E4C701B60119D387FD11C0AE
:1010100020E030E040E252E4C701B601D2D087FFC1
:1010200008C089E691E0F9DA61E0680F89E691E0AD
:1010300010CE20E030E040E252E4C701B601FFD21A
:1010400087FD11C020E030E044E352E4C701B6015F
:10105000B8D087FF08C08AE691E0DFDA61E0680F68
:101060008AE691E0F6CD20E030E044E352E4C701A7
:10107000B601E5D287FD11C020E030E048E452E43B
:10108000C701B6019ED087FF08C08BE691E0C5DAA4
:1010900061E0680F8BE691E0DCCD20E030E048E4D1
:1010A00052E4C701B601CBD287FD08C08CE691E0BF
:1010B000B4DA61E0680F8CE691E0CBCD20E030E05F
:1010C00040EA51E4C701B6017CD087FFC3CD8DE66D
:1010D00091E0A3DA61E0680F8DE691E0BACDCF939D
:1010E000109261011092600188EE93E0A0E0B0E000
:1010F0008093620190936301A0936401B0936501B2
:1011000084E690E090935F0180935E0110927501F8
:101110001092740110927701109276011092790169
:101120001092780110927B0110927A0160917C01FB
:101130006E7F6D7F60937C01C1E0669561706C2766
:1011400080E0F6D961E080E02FDAC0936E0188E399
:1011500090E09093700180936F0160E081E024DA69
:1011600080917C0181FD03C061E081E0E1D981E0F3
:1011700080936A0182E080936B0186E390E0909314
:101180006D0180936C01CF91089584E690E0909377
:101190005F0180935E0180913401909135018E55FD
:1011A000914071F4E0917101F09172019081809110
:1011B0007301809589238083109235011092340148
:1011C000089540D008F481E00895E89409C097FBA1
:1011D0003EF490958095709561957F4F8F4F9F4F0E
:1011E0009923A9F0F92F96E9BB279395F695879552
:1011F00077956795B795F111F8CFFAF4BB0F11F415
:1012000060FF1BC06F5F7F4F8F4F9F4F16C08823BB
:1012100011F096E911C0772321F09EE8872F762FF1
:1012200005C0662371F096E8862F70E060E02AF032
:101230009A95660F771F881FDAF7880F969587951E
:1012400097F90895990F0008550FAA0BE0E8FEEFF3
:1012500016161706E807F907C0F012161306E4077A
:10126000F50798F0621B730B840B950B39F40A2673
:1012700061F0232B242B252B21F408950A2609F451
:10128000A140A6958FEF811D811D08950AD080C0D1
:1012900071D028F076D018F0952309F062C067C0AD
:1012A000ABC087D0A8F39923D9F35523C9F3950F81
:1012B00050E0551FAA27EE27FF27BB2700240894DC
:1012C000679520F4E20FF31FB41F0A1E220F331F8D
:1012D000441FAA1F6695A9F7779530F4F30FB41F42
:1012E0000A1E121E08F46395330F441FAA1F221F03
:1012F000769599F7879520F4B40F0A1E121E631F86
:10130000440FAA1F221F331F8695A9F7862F712D20
:10131000602D11249F5750408AF0E1F088234AF055
:10132000EE0FFF1FBB1F661F771F881F9150504095
:10133000A9F79E3F510570F014C05EC05F3FECF30B
:10134000983EDCF3869577956795B795F795E79581
:101350009F5FC1F7FE2B880F911D9695879597F992
:10136000089597F99F6780E870E060E008959FEF27
:1013700080EC089500240A9416161706180609062C
:10138000089500240A9412161306140605060895FB
:10139000092E0394000C11F4882352F0BB0F40F483
:1013A000BF2B11F460FF04C06F5F7F4F8F4F9F4FC3
:1013B000089557FD9058440F551F59F05F3F71F045
:1013C0004795880F97FB991F61F09F3F79F08795AC
:1013D0000895121613061406551FF2CF4695F1DF35
:1013E00008C0161617061806991FF1CF86957105C5
:1013F000610508940895E894BB2766277727CB01F9
:1014000097F90895E199FECF9FBB8EBBE09A99278B
:101410008DB30895262FE199FECF1CBA9FBB8EBBDA
:101420002DBB0FB6F894E29AE19A0FBE019608958B
:10143000002480FD060E660F11F08695D1F7802DF1
:1014400008955058BB27AA270ED0A2CF93DF30F0C3
:1014500098DF20F031F49F3F11F41EF488CF0EF492
:10146000E095E7FB7ECFE92FA4DF80F3BA17620790
:1014700073078407950718F071F49EF5BCCF0EF43E
:10148000E0950B2EBA2FA02D0B01B90190010C0194
:10149000CA01A0011124FF27591B99F0593F50F4AC
:1014A000503E68F11A16F040A22F232F342F442704
:1014B000585FF3CF469537952795A795F0405395FC
:1014C000C9F77EF41F16BA0B620B730B840BBAF0CC
:1014D0009150A1F0FF0FBB1F661F771F881FC2F737
:1014E0000EC0BA0F621F731F841F48F4879577954B
:1014F0006795B795F7959E3F08F0B3CF9395880F02
:1015000008F09927EE0F9795879508950CD040CF56
:1015100038DF40F02FDF30F021F45F3F19F021CFAA
:1015200051116ACF24CF45DF98F39923C9F355238E
:10153000B1F3951B550BBB27AA27621773078407C6
:1015400038F09F5F5F4F220F331F441FAA1FA9F37C
:1015500033D00E2E3AF0E0E830D091505040E6956E
:10156000001CCAF729D0FE2F27D0660F771F881FCF
:10157000BB1F261737074807AB07B0E809F0BB0BBE
:10158000802DBF01FF2793585F4F2AF09E3F5105E2
:1015900068F0E7CE31CF5F3FECF3983EDCF3869501
:1015A00077956795B795F7959F5FC9F7880F911D58
:1015B0009695879597F90895E1E0660F771F881F44
:1015C000BB1F621773078407BA0720F0621B730BF7
:1015D000840BBA0BEE1F88F7E095089504D0689449
:1015E000B1110ACF0895EDDE88F09F5790F0B92F22
:1015F0009927B751A0F0D1F0660F771F881F991F68
:101600001AF0BA95C9F712C0B13081F0F4DEB1E03A
:101610000895F1CE672F782F8827B85F39F0B93F4A
:10162000CCF3869577956795B395D9F73EF4909569
:101630008095709561957F4F8F4F9F4F089502DE83
:1016400008F48FEF0895EE27FF27AA27BB2708C0CD
:10165000A20FB31FE41FF51F220F331F441F551F96
:10166000969587957795679598F37040A9F70097B9
:1016700099F7BD01CF01089597FB072E16F400944A
:1016800006D077FD08D02DD007FC05D03EF490950C
:1016900081959F4F0895709561957F4F0895A1E2C0
:1016A0001A2EAA1BBB1BFD010DC0AA1FBB1FEE1FDC
:1016B000FF1FA217B307E407F50720F0A21BB30B27
:1016C000E40BF50B661F771F881F991F1A9469F7A3
:1016D00060957095809590959B01AC01BD01CF01FF
:1016E0000895AA1BBB1B51E107C0AA1FBB1FA61769
:1016F000B70710F0A61BB70B881F991F5A95A9F7BB
:1017000080959095BC01CD010895EE0FFF1F0590C7
:10171000F491E02D099410E0CFE1D0E003C0FE0188
:0E172000F4DF2196C032D107D1F7F894FFCF45
:10172E0000000000F200A1005E017501C900E30097
:10173E002E00454550524F4D5B005D203D20002050
:10174E002C2000496E646578203D200054656D7034
:10175E004D6178203D200054656D704D696E203DC1
:10176E002000486F757273203D20004572726F72B3
:10177E004D617854656D70203D20004572726F7218
:10178E00536C6F706554656D70203D20004572720C
:10179E006F72566F6C74616A65203D20004D696EE4
:1017AE0075746573203D2000203A2000202D3E20C8
:0217BE00000029
:00000001FF
